{"abi":[{"type":"constructor","inputs":[],"stateMutability":"nonpayable"},{"type":"function","name":"_checkStatus","inputs":[{"name":"_owner","type":"address","internalType":"address"},{"name":"_joiner","type":"address","internalType":"address"}],"outputs":[{"name":"","type":"bool","internalType":"bool"}],"stateMutability":"view"},{"type":"function","name":"blacklistAddress","inputs":[{"name":"_address","type":"address","internalType":"address"}],"outputs":[],"stateMutability":"nonpayable"},{"type":"function","name":"blacklistedRedemption","inputs":[{"name":"","type":"address","internalType":"address"}],"outputs":[{"name":"subject","type":"address","internalType":"address"},{"name":"votesFor","type":"uint8","internalType":"uint8"},{"name":"votesAgainst","type":"uint8","internalType":"uint8"}],"stateMutability":"view"},{"type":"function","name":"isBlacklisted","inputs":[{"name":"","type":"address","internalType":"address"}],"outputs":[{"name":"","type":"bool","internalType":"bool"}],"stateMutability":"view"},{"type":"function","name":"isPanel","inputs":[{"name":"","type":"address","internalType":"address"}],"outputs":[{"name":"","type":"bool","internalType":"bool"}],"stateMutability":"view"},{"type":"function","name":"owner","inputs":[],"outputs":[{"name":"","type":"address","internalType":"address"}],"stateMutability":"view"},{"type":"function","name":"panel","inputs":[{"name":"","type":"uint256","internalType":"uint256"}],"outputs":[{"name":"","type":"address","internalType":"address"}],"stateMutability":"view"},{"type":"function","name":"reinstateBlacklistedUser","inputs":[{"name":"_address","type":"address","internalType":"address"},{"name":"_vote","type":"bool","internalType":"bool"}],"outputs":[],"stateMutability":"nonpayable"},{"type":"function","name":"selectManagementVoter","inputs":[{"name":"_address","type":"address","internalType":"address"}],"outputs":[],"stateMutability":"nonpayable"},{"type":"function","name":"setBatchFriendlies","inputs":[{"name":"_addresses","type":"address[]","internalType":"address[]"}],"outputs":[],"stateMutability":"nonpayable"},{"type":"function","name":"setFriendly","inputs":[{"name":"_address","type":"address","internalType":"address"}],"outputs":[],"stateMutability":"nonpayable"},{"type":"function","name":"userFriendlies","inputs":[{"name":"","type":"address","internalType":"address"},{"name":"","type":"address","internalType":"address"}],"outputs":[{"name":"","type":"bool","internalType":"bool"}],"stateMutability":"view"}],"bytecode":{"object":"0x6080604052348015600f57600080fd5b50600080546001600160a01b03191633179055610adf806100316000396000f3fe608060405234801561001057600080fd5b50600436106100b45760003560e01c8063ebbce65211610071578063ebbce6521461016a578063f032e36d146101d2578063f3290d7514610200578063f61570b214610213578063f7e4bf5a14610226578063fe575a871461023957600080fd5b806311dc8741146100b957806352e8f9ee146100ce57806386258489146100e15780638af9de2d146101195780638da5cb5b1461012c578063aa07bd0914610157575b600080fd5b6100cc6100c73660046108c4565b61025c565b005b6100cc6100dc366004610900565b610433565b6101046100ef366004610900565b60026020526000908152604090205460ff1681565b60405190151581526020015b60405180910390f35b610104610127366004610922565b61054d565b60005461013f906001600160a01b031681565b6040516001600160a01b039091168152602001610110565b61013f610165366004610955565b6105bc565b6101a9610178366004610900565b6003602052600090815260409020546001600160a01b0381169060ff600160a01b8204811691600160a81b90041683565b604080516001600160a01b03909416845260ff9283166020850152911690820152606001610110565b6101046101e0366004610922565b600560209081526000928352604080842090915290825290205460ff1681565b6100cc61020e366004610900565b6105e6565b6100cc610221366004610900565b6106a4565b6100cc61023436600461096e565b610764565b610104610247366004610900565b60046020526000908152604090205460ff1681565b6001600160a01b03821661028b5760405162461bcd60e51b8152600401610282906109e3565b60405180910390fd5b3360009081526002602052604090205460ff166102e05760405162461bcd60e51b81526020600482015260136024820152724e6f7420416c6c6f77656420746f20766f746560681b6044820152606401610282565b6001600160a01b038216600090815260036020526040902081151560010361035a578054600160a01b900460ff1681601461031a83610a22565b825460ff9182166101009390930a92830291909202199091161790555033600090815260018281016020526040909120805460ff191690911790556103ae565b8054600160a81b900460ff1681601561037283610a22565b825460ff9182166101009390930a92830291909202199091161790555033600090815260018281016020526040909120805460ff191690911790555b80546000906103d09060ff600160a81b8204811691600160a01b900416610a41565b60ff169050600180549050810361042d578154603c906103fb908390600160a01b900460ff16610a5a565b610406906064610a7c565b111561042d576001600160a01b0384166000908152600460205260409020805460ff191690555b50505050565b6000546001600160a01b0316331461047c5760405162461bcd60e51b815260206004820152600c60248201526b155b985d5d1a1bdc9a5e995960a21b6044820152606401610282565b6001600160a01b0381166104a25760405162461bcd60e51b8152600401610282906109e3565b600154600a116104e95760405162461bcd60e51b8152602060048201526012602482015271546f6f206d616e792070616e656c6973747360701b6044820152606401610282565b6001805480820182557fb10e2d527612073b26eecdfd717e6a320cf44b4afac2b0732d9fcbe2b7fa0cf60180546001600160a01b039093166001600160a01b031990931683179055600091825260026020526040909120805460ff19169091179055565b60006001600160a01b0383161580159061056f57506001600160a01b03821615155b61058b5760405162461bcd60e51b8152600401610282906109e3565b506001600160a01b0380831660009081526005602090815260408083209385168352929052205460ff165b92915050565b600181815481106105cc57600080fd5b6000918252602090912001546001600160a01b0316905081565b6001600160a01b03811661060c5760405162461bcd60e51b8152600401610282906109e3565b6001600160a01b03811660009081526004602052604090205460ff16156106805760405162461bcd60e51b815260206004820152602260248201527f546865206164647265737320697320616c726561647920626c61636b6c697374604482015261195960f21b6064820152608401610282565b6001600160a01b03166000908152600460205260409020805460ff19166001179055565b6001600160a01b0381166106ca5760405162461bcd60e51b8152600401610282906109e3565b3360009081526005602090815260408083206001600160a01b038516845290915290205460ff16156107335760405162461bcd60e51b8152602060048201526012602482015271416c7265616479204120467269656e646c7960701b6044820152606401610282565b3360009081526005602090815260408083206001600160a01b0394909416835292905220805460ff19166001179055565b8060005b8181101561042d57600084848381811061078457610784610a93565b90506020020160208101906107999190610900565b90506001600160a01b0381166107f15760405162461bcd60e51b815260206004820152601f60248201527f4f6e65206f66207468652061646472657373657320697320696e76616c6964006044820152606401610282565b3360009081526005602090815260408083206001600160a01b038516845290915290205460ff16156108745760405162461bcd60e51b815260206004820152602660248201527f4f6e65206f662074686520757365727320697320616c7265616479206120667260448201526569656e646c7960d01b6064820152608401610282565b3360009081526005602090815260408083206001600160a01b0394909416835292905220805460ff19166001179055610768565b80356001600160a01b03811681146108bf57600080fd5b919050565b600080604083850312156108d757600080fd5b6108e0836108a8565b9150602083013580151581146108f557600080fd5b809150509250929050565b60006020828403121561091257600080fd5b61091b826108a8565b9392505050565b6000806040838503121561093557600080fd5b61093e836108a8565b915061094c602084016108a8565b90509250929050565b60006020828403121561096757600080fd5b5035919050565b6000806020838503121561098157600080fd5b823567ffffffffffffffff8082111561099957600080fd5b818501915085601f8301126109ad57600080fd5b8135818111156109bc57600080fd5b8660208260051b85010111156109d157600080fd5b60209290920196919550909350505050565b6020808252600f908201526e496e76616c6964204164647265737360881b604082015260600190565b634e487b7160e01b600052601160045260246000fd5b600060ff821660ff8103610a3857610a38610a0c565b60010192915050565b60ff81811683821601908111156105b6576105b6610a0c565b600082610a7757634e487b7160e01b600052601260045260246000fd5b500490565b80820281158282048414176105b6576105b6610a0c565b634e487b7160e01b600052603260045260246000fdfea2646970667358221220967e6162221de74d68955042874b6586dc186835e4ce9fcb11025172db67c91c64736f6c63430008190033","linkReferences":{}},"methodIdentifiers":{"_checkStatus(address,address)":"8af9de2d","blacklistAddress(address)":"f3290d75","blacklistedRedemption(address)":"ebbce652","isBlacklisted(address)":"fe575a87","isPanel(address)":"86258489","owner()":"8da5cb5b","panel(uint256)":"aa07bd09","reinstateBlacklistedUser(address,bool)":"11dc8741","selectManagementVoter(address)":"52e8f9ee","setBatchFriendlies(address[])":"f7e4bf5a","setFriendly(address)":"f61570b2","userFriendlies(address,address)":"f032e36d"},"id":0}