{"abi":[{"type":"constructor","inputs":[{"name":"_mgmt","type":"address","internalType":"address"}],"stateMutability":"nonpayable"},{"type":"function","name":"balances","inputs":[{"name":"","type":"uint256","internalType":"uint256"},{"name":"","type":"address","internalType":"address"}],"outputs":[{"name":"","type":"uint256","internalType":"uint256"}],"stateMutability":"view"},{"type":"function","name":"claimTurn","inputs":[{"name":"poolId","type":"uint256","internalType":"uint256"}],"outputs":[],"stateMutability":"nonpayable"},{"type":"function","name":"contributeToPool","inputs":[{"name":"_poolID","type":"uint256","internalType":"uint256"}],"outputs":[],"stateMutability":"nonpayable"},{"type":"function","name":"createPool","inputs":[{"name":"name","type":"string","internalType":"string"},{"name":"maxParticipants","type":"uint256","internalType":"uint256"},{"name":"contributionPerParticipant","type":"uint256","internalType":"uint256"},{"name":"durationPerTurn","type":"uint256","internalType":"uint256"},{"name":"_isRestricted","type":"bool","internalType":"bool"}],"outputs":[],"stateMutability":"nonpayable"},{"type":"function","name":"getAllSavingPools","inputs":[],"outputs":[{"name":"","type":"tuple[]","internalType":"struct ChamaPool.Pool[]","components":[{"name":"owner","type":"address","internalType":"address"},{"name":"name","type":"string","internalType":"string"},{"name":"userTurnAddress","type":"address","internalType":"address"},{"name":"contributionPerParticipant","type":"uint256","internalType":"uint256"},{"name":"maxParticipants","type":"uint256","internalType":"uint256"},{"name":"durationPerTurn","type":"uint256","internalType":"uint256"},{"name":"currentTurn","type":"uint256","internalType":"uint256"},{"name":"active","type":"bool","internalType":"bool"},{"name":"participants","type":"address[]","internalType":"address[]"},{"name":"_poolBalance","type":"uint256","internalType":"uint256"},{"name":"isRestrictedPool","type":"bool","internalType":"bool"},{"name":"userContibutionNumber","type":"uint256","internalType":"uint256"},{"name":"startTime","type":"uint256","internalType":"uint256"},{"name":"poolID","type":"uint256","internalType":"uint256"}]}],"stateMutability":"view"},{"type":"function","name":"getOwnerSavingPools","inputs":[{"name":"ownerAddress","type":"address","internalType":"address"}],"outputs":[{"name":"","type":"tuple[]","internalType":"struct ChamaPool.Pool[]","components":[{"name":"owner","type":"address","internalType":"address"},{"name":"name","type":"string","internalType":"string"},{"name":"userTurnAddress","type":"address","internalType":"address"},{"name":"contributionPerParticipant","type":"uint256","internalType":"uint256"},{"name":"maxParticipants","type":"uint256","internalType":"uint256"},{"name":"durationPerTurn","type":"uint256","internalType":"uint256"},{"name":"currentTurn","type":"uint256","internalType":"uint256"},{"name":"active","type":"bool","internalType":"bool"},{"name":"participants","type":"address[]","internalType":"address[]"},{"name":"_poolBalance","type":"uint256","internalType":"uint256"},{"name":"isRestrictedPool","type":"bool","internalType":"bool"},{"name":"userContibutionNumber","type":"uint256","internalType":"uint256"},{"name":"startTime","type":"uint256","internalType":"uint256"},{"name":"poolID","type":"uint256","internalType":"uint256"}]}],"stateMutability":"view"},{"type":"function","name":"getTurnDetails","inputs":[{"name":"poolId","type":"uint256","internalType":"uint256"}],"outputs":[{"name":"","type":"tuple","internalType":"struct ChamaPool.TurnDetails","components":[{"name":"turnBal","type":"uint256","internalType":"uint256"},{"name":"endTime","type":"uint256","internalType":"uint256"},{"name":"currentClaimant","type":"address","internalType":"address"},{"name":"active","type":"bool","internalType":"bool"}]}],"stateMutability":"view"},{"type":"function","name":"hascontributed","inputs":[{"name":"","type":"uint256","internalType":"uint256"},{"name":"","type":"address","internalType":"address"}],"outputs":[{"name":"","type":"bool","internalType":"bool"}],"stateMutability":"view"},{"type":"function","name":"joinPool","inputs":[{"name":"poolId","type":"uint256","internalType":"uint256"}],"outputs":[],"stateMutability":"nonpayable"},{"type":"function","name":"owner","inputs":[],"outputs":[{"name":"","type":"address","internalType":"address"}],"stateMutability":"view"},{"type":"function","name":"poolContributionbalances","inputs":[{"name":"","type":"uint256","internalType":"uint256"}],"outputs":[{"name":"","type":"uint256","internalType":"uint256"}],"stateMutability":"view"},{"type":"function","name":"poolCounter","inputs":[],"outputs":[{"name":"","type":"uint256","internalType":"uint256"}],"stateMutability":"view"},{"type":"function","name":"poolbalances","inputs":[{"name":"","type":"uint256","internalType":"uint256"}],"outputs":[{"name":"","type":"uint256","internalType":"uint256"}],"stateMutability":"view"},{"type":"function","name":"pools","inputs":[{"name":"","type":"uint256","internalType":"uint256"}],"outputs":[{"name":"owner","type":"address","internalType":"address"},{"name":"name","type":"string","internalType":"string"},{"name":"userTurnAddress","type":"address","internalType":"address"},{"name":"contributionPerParticipant","type":"uint256","internalType":"uint256"},{"name":"maxParticipants","type":"uint256","internalType":"uint256"},{"name":"durationPerTurn","type":"uint256","internalType":"uint256"},{"name":"currentTurn","type":"uint256","internalType":"uint256"},{"name":"active","type":"bool","internalType":"bool"},{"name":"_poolBalance","type":"uint256","internalType":"uint256"},{"name":"isRestrictedPool","type":"bool","internalType":"bool"},{"name":"userContibutionNumber","type":"uint256","internalType":"uint256"},{"name":"startTime","type":"uint256","internalType":"uint256"},{"name":"poolID","type":"uint256","internalType":"uint256"}],"stateMutability":"view"},{"type":"function","name":"totalNumberOfTurnsPerpool","inputs":[{"name":"","type":"uint256","internalType":"uint256"},{"name":"","type":"address","internalType":"address"}],"outputs":[{"name":"","type":"uint256","internalType":"uint256"}],"stateMutability":"view"},{"type":"function","name":"turn","inputs":[{"name":"","type":"uint256","internalType":"uint256"}],"outputs":[{"name":"turnBal","type":"uint256","internalType":"uint256"},{"name":"endTime","type":"uint256","internalType":"uint256"},{"name":"currentClaimant","type":"address","internalType":"address"},{"name":"active","type":"bool","internalType":"bool"}],"stateMutability":"view"},{"type":"event","name":"JoinedPool","inputs":[{"name":"poolId","type":"uint256","indexed":false,"internalType":"uint256"},{"name":"participant","type":"address","indexed":false,"internalType":"address"}],"anonymous":false},{"type":"event","name":"PoolCreated","inputs":[{"name":"poolId","type":"uint256","indexed":false,"internalType":"uint256"},{"name":"owner","type":"address","indexed":false,"internalType":"address"},{"name":"name","type":"string","indexed":false,"internalType":"string"},{"name":"maxParticipants","type":"uint256","indexed":false,"internalType":"uint256"},{"name":"contributionPerParticipant","type":"uint256","indexed":false,"internalType":"uint256"},{"name":"durationPerTurn","type":"uint256","indexed":false,"internalType":"uint256"}],"anonymous":false},{"type":"event","name":"TurnClaimed","inputs":[{"name":"poolId","type":"uint256","indexed":false,"internalType":"uint256"},{"name":"turnId","type":"uint256","indexed":false,"internalType":"uint256"},{"name":"participant","type":"address","indexed":false,"internalType":"address"},{"name":"amount","type":"uint256","indexed":false,"internalType":"uint256"}],"anonymous":false}],"bytecode":{"object":"0x6080604052600b80546001600160a01b03191673765de816845861e75a25fca122bb6898b8b1282a17905534801561003657600080fd5b5060405161261d38038061261d833981016040819052610055916100f4565b600b54600680546001600160a01b0319166001600160a01b0392831617905581166100c65760405162461bcd60e51b815260206004820152601860248201527f496e76616c696420436f6e747261637420416464726573730000000000000000604482015260640160405180910390fd5b600080546001600160a01b039092166001600160a01b03199283161790556001805490911633179055610124565b60006020828403121561010657600080fd5b81516001600160a01b038116811461011d57600080fd5b9392505050565b6124ea806101336000396000f3fe608060405234801561001057600080fd5b50600436106101005760003560e01c80638389250711610097578063ac4afa3811610066578063ac4afa38146102bf578063b043d7d6146102eb578063b6f0b6f214610360578063d3d84c4c1461036857600080fd5b806383892507146102655780638da5cb5b146102785780638e5815df146102a35780639e3079cb146102b657600080fd5b80632cdd3f0a116100d35780632cdd3f0a14610198578063303d49f9146101e957806334e7a19f146102275780634d2a9c7b1461023a57600080fd5b806304379f091461010557806310eae0c8146101385780631213d953146101585780631f3203311461016d575b600080fd5b610125610113366004611e96565b60036020526000908152604090205481565b6040519081526020015b60405180910390f35b61014b610146366004611ecb565b610388565b60405161012f9190611f78565b61016b6101663660046120b5565b610652565b005b61012561017b366004612154565b600260209081526000928352604080842090915290825290205481565b6101ab6101a6366004611e96565b610b24565b60405161012f919081518152602080830151908201526040808301516001600160a01b03169082015260609182015115159181019190915260800190565b6102176101f7366004612154565b600560209081526000928352604080842090915290825290205460ff1681565b604051901515815260200161012f565b61016b610235366004611e96565b610bbe565b610125610248366004612154565b600960209081526000928352604080842090915290825290205481565b61016b610273366004611e96565b61104c565b60015461028b906001600160a01b031681565b6040516001600160a01b03909116815260200161012f565b61016b6102b1366004611e96565b6114a8565b610125600a5481565b6102d26102cd366004611e96565b6115ab565b60405161012f9d9c9b9a99989796959493929190612180565b61032f6102f9366004611e96565b6008602052600090815260409020805460018201546002909201549091906001600160a01b03811690600160a01b900460ff1684565b60405161012f949392919093845260208401929092526001600160a01b031660408301521515606082015260800190565b61014b6116b4565b610125610376366004611e96565b60046020526000908152604090205481565b60606000805b600a5481116103d8576000818152600760205260409020546001600160a01b038086169116036103c657816103c28161221c565b9250505b806103d08161221c565b91505061038e565b5060008167ffffffffffffffff8111156103f4576103f4612235565b60405190808252806020026020018201604052801561042d57816020015b61041a611d97565b8152602001906001900390816104125790505b5090506000805b600a548111610648576000818152600760205260409020546001600160a01b038088169116036106365760008181526007602090815260409182902082516101c0810190935280546001600160a01b03168352600181018054919284019161049b9061224b565b80601f01602080910402602001604051908101604052809291908181526020018280546104c79061224b565b80156105145780601f106104e957610100808354040283529160200191610514565b820191906000526020600020905b8154815290600101906020018083116104f757829003601f168201915b505050918352505060028201546001600160a01b031660208083019190915260038301546040808401919091526004840154606084015260058401546080840152600684015460a0840152600784015460ff16151560c084015260088401805482518185028101850190935280835260e09094019391929091908301828280156105c757602002820191906000526020600020905b81546001600160a01b031681526001909101906020018083116105a9575b505050918352505060098201546020820152600a82015460ff1615156040820152600b8201546060820152600c8201546080820152600d9091015460a090910152835184908490811061061c5761061c61227f565b602002602001018190525081806106329061221c565b9250505b806106408161221c565b915050610434565b5090949350505050565b600084116106b75760405162461bcd60e51b815260206004820152602760248201527f4d6178207061727469636970616e7473206d75737420626520677265617465726044820152660207468616e20360cc1b60648201526084015b60405180910390fd5b600083116107235760405162461bcd60e51b815260206004820152603360248201527f436f6e747269627574696f6e20706572207061727469636970616e74206d75736044820152720742062652067726561746572207468616e203606c1b60648201526084016106ae565b600082116107845760405162461bcd60e51b815260206004820152602860248201527f4475726174696f6e20706572207475726e206d75737420626520677265617465604482015267072207468616e20360c41b60648201526084016106ae565b6006546001600160a01b03166323b872dd33306107a2876002612295565b6040516001600160e01b031960e086901b1681526001600160a01b03938416600482015292909116602483015260448201526064016020604051808303816000875af11580156107f6573d6000803e3d6000fd5b505050506040513d601f19601f8201168201806040525081019061081a91906122ac565b61085c5760405162461bcd60e51b8152602060048201526013602482015272151bdc08155c08165bdd5c881858d8dbdd5b9d606a1b60448201526064016106ae565b600a546040805160018082528183019092526000916020808301908036833701905050905033816000815181106108955761089561227f565b6001600160a01b039092166020928302919091019091015260006108ba866002612295565b9050806003600085815260200190815260200160002060008282546108df91906122c9565b9091555050600083815260046020526040812080548392906109029084906122c9565b92505081905550604051806101c00160405280336001600160a01b031681526020018a8a8080601f016020809104026020016040519081016040528093929190818152602001838380828437600092018290525093855250503360208085019190915260408085018c9052606085018d9052608085018b905260a0850184905260c0850184905260e085018890526101008501879052891515610120860152610140850184905261016085018490526101809094018890528783526007815292909120835181546001600160a01b0319166001600160a01b03909116178155918301516001830191506109f5908261232c565b5060408201516002820180546001600160a01b0319166001600160a01b03909216919091179055606082015160038201556080820151600482015560a0820151600582015560c0820151600682015560e082015160078201805460ff19169115159190911790556101008201518051610a78916008840191602090910190611e1c565b506101208201516009820155610140820151600a8201805460ff1916911515919091179055610160820151600b820155610180820151600c8201556101a090910151600d909101556040517f80eb862b1ebf91ef46e8085c1e47b348af9ad8f1248fb18302612a57ad3a2b5590610afc90859033908d908d908d908d908d906123ec565b60405180910390a1600a8054906000610b148361221c565b9190505550505050505050505050565b604080516080810182526000808252602082018190529181018290526060810191909152600a548210610b695760405162461bcd60e51b81526004016106ae9061244b565b50600090815260086020908152604091829020825160808101845281548152600182015492810192909252600201546001600160a01b03811692820192909252600160a01b90910460ff161515606082015290565b600a548110610bdf5760405162461bcd60e51b81526004016106ae9061244b565b60008181526007602081905260409091209081015460ff1615610c3d5760405162461bcd60e51b8152602060048201526016602482015275506f6f6c20697320616c72656164792061637469766560501b60448201526064016106ae565b600081600301546002610c509190612295565b60005460405163fe575a8760e01b81523360048201529192506001600160a01b03169063fe575a8790602401602060405180830381865afa158015610c99573d6000803e3d6000fd5b505050506040513d601f19601f82011682018060405250810190610cbd91906122ac565b15610d235760405162461bcd60e51b815260206004820152603060248201527f596f752061726520626c61636b6c69737465642066726f6d2074686520706f6f60448201526f6c20666f722064656661756c74696e6760801b60648201526084016106ae565b600a82015460ff1615610e0157815460008054604051638af9de2d60e01b81526001600160a01b03938416600482018190523360248301529390911690638af9de2d90604401602060405180830381865afa158015610d86573d6000803e3d6000fd5b505050506040513d601f19601f82011682018060405250810190610daa91906122ac565b9050600181151514610dfe5760405162461bcd60e51b815260206004820181905260248201527f596f7520617265206e6f7420616c6c6f77656420696e207468697320706f6f6c60448201526064016106ae565b50505b6006546040516323b872dd60e01b8152336004820152306024820152604481018390526001600160a01b03909116906323b872dd906064016020604051808303816000875af1158015610e58573d6000803e3d6000fd5b505050506040513d601f19601f82011682018060405250810190610e7c91906122ac565b506008820180546001810182556000918252602080832090910180546001600160a01b03191633908117909155858352600282526040808420918452915281208054839290610ecc9084906122c9565b909155505060008381526004602052604081208054839290610eef9084906122c9565b9250508190555080826009016000828254610f0a91906122c9565b909155505060008381526003602052604081208054839290610f2d9084906122c9565b9091555050604080518481523360208201527ff699e742bd69bd778207e5ea6eb05fcff0f4fe72ec9832671235c1abb0a54dac910160405180910390a16004820154600883015403611047576000826005015442610f8b91906122c9565b9050600083600801846006015481548110610fa857610fa861227f565b600091825260208083209091015460408051608081018252898552600384528185205481528084019687526001600160a01b03928316818301908152606082018681528b875260089095529190942093518455945160018481019190915594516002909301805492511515600160a01b026001600160a81b031990931693909116929092171790555060078301805460ff1916909117905542600c8301555b505050565b600a54811061106d5760405162461bcd60e51b81526004016106ae9061244b565b60008181526007602081905260409091209081015460ff166110c65760405162461bcd60e51b8152602060048201526012602482015271506f6f6c206973206e6f742061637469766560701b60448201526064016106ae565b6110d08233611905565b61112b5760405162461bcd60e51b815260206004820152602660248201527f596f7520617265206e6f742061207061727469636970616e74206f66207468696044820152651cc81c1bdbdb60d21b60648201526084016106ae565b6000816008018260060154815481106111465761114661227f565b6000918252602090912001546001600160a01b031690503381146111ac5760405162461bcd60e51b815260206004820152601b60248201527f49742773206e6f7420796f7572207475726e20746f20636c61696d000000000060448201526064016106ae565b60088201546006830154106111d35760405162461bcd60e51b81526004016106ae90612474565b60008381526008602052604090206001015442101561122a5760405162461bcd60e51b81526020600482015260136024820152721dd85a5d199bdc881d1d5c9b881d1bc8195b99606a1b60448201526064016106ae565b6000838152600460205260409020546112855760405162461bcd60e51b815260206004820181905260248201527f6e6f74636f6e747269627574656420666f722074686973207475726e2079657460448201526064016106ae565b60008381526004602090815260408083205460039092528220546112a991906124a1565b60065460405163a9059cbb60e01b8152336004820152602481018390529192506001600160a01b03169063a9059cbb906044016020604051808303816000875af11580156112fb573d6000803e3d6000fd5b505050506040513d601f19601f8201168201806040525081019061131f91906122ac565b506000848152600360205260408120805483929061133e9084906124a1565b925050819055508083600901600082825461135991906124a1565b9091555050600883015461136f906001906124a1565b836006015403611387576113828461199d565b6114a2565b600183600601600082825461139c91906122c9565b92505081905550826008018360060154815481106113bc576113bc61227f565b60009182526020822001546002850180546001600160a01b0319166001600160a01b0390921691909117905560058401546113f790426122c9565b6000868152600260208181526040808420338086529083528185208590558a85526008909252909220600181018490550180546001600160a01b03191690911790559050600184600b01600082825461145091906122c9565b90915550506006840154604080518781526020810192909252338282015260608201849052517f62d234736b0e32d7d5f88a79102f22ec145d4e518e4a9f994a925ef3d7e8d9709181900360800190a1505b50505050565b6114b28133611905565b6114fe5760405162461bcd60e51b815260206004820152601e60248201527f4e6f742061207061727469636970616e7420696e207468697320706f6f6c000060448201526064016106ae565b6000818152600760209081526040808320600681015460098452828520338652909352922054146115415760405162461bcd60e51b81526004016106ae90612474565b600082815260076020526040902060038101546006820154600890920154909190036115a157600083815260056020908152604080832033845290915290205460ff16156115a15760405162461bcd60e51b81526004016106ae90612474565b61104783826119ca565b600760205260009081526040902080546001820180546001600160a01b0390921692916115d79061224b565b80601f01602080910402602001604051908101604052809291908181526020018280546116039061224b565b80156116505780601f1061162557610100808354040283529160200191611650565b820191906000526020600020905b81548152906001019060200180831161163357829003601f168201915b50505060028401546003850154600486015460058701546006880154600789015460098a0154600a8b0154600b8c0154600c8d0154600d909d01549b9c6001600160a01b039099169b979a509598509396929560ff9283169591949092169290918d565b60606000600a5467ffffffffffffffff8111156116d3576116d3612235565b60405190808252806020026020018201604052801561170c57816020015b6116f9611d97565b8152602001906001900390816116f15790505b50905060015b600a5481116118ff5760008181526007602090815260409182902082516101c0810190935280546001600160a01b0316835260018101805491928401916117589061224b565b80601f01602080910402602001604051908101604052809291908181526020018280546117849061224b565b80156117d15780601f106117a6576101008083540402835291602001916117d1565b820191906000526020600020905b8154815290600101906020018083116117b457829003601f168201915b505050918352505060028201546001600160a01b031660208083019190915260038301546040808401919091526004840154606084015260058401546080840152600684015460a0840152600784015460ff16151560c084015260088401805482518185028101850190935280835260e090940193919290919083018282801561188457602002820191906000526020600020905b81546001600160a01b03168152600190910190602001808311611866575b505050918352505060098201546020820152600a82015460ff1615156040820152600b8201546060820152600c8201546080820152600d9091015460a090910152826118d16001846124a1565b815181106118e1576118e161227f565b602002602001018190525080806118f79061221c565b915050611712565b50919050565b6000600a5483106119285760405162461bcd60e51b81526004016106ae9061244b565b6000838152600760205260408120905b600882015481101561199057836001600160a01b03168260080182815481106119635761196361227f565b6000918252602090912001546001600160a01b03160361198857600192505050611997565b600101611938565b5060009150505b92915050565b600a5481106119be5760405162461bcd60e51b81526004016106ae9061244b565b6119c781611c06565b50565b600a5482106119eb5760405162461bcd60e51b81526004016106ae9061244b565b60008281526007602081905260409091209081015460ff16611a445760405162461bcd60e51b8152602060048201526012602482015271506f6f6c206973206e6f742061637469766560701b60448201526064016106ae565b80600301548214611ac95760405162461bcd60e51b815260206004820152604360248201527f436f6e747269627574696f6e20616d6f756e74206d757374206d61746368207460448201527f68652073706563696669656420616d6f756e7420706572207061727469636970606482015262185b9d60ea1b608482015260a4016106ae565b6006546040516323b872dd60e01b8152336004820152306024820152604481018490526001600160a01b03909116906323b872dd906064016020604051808303816000875af1158015611b20573d6000803e3d6000fd5b505050506040513d601f19601f82011682018060405250810190611b4491906122ac565b50600083815260026020908152604080832033845290915281208054849290611b6e9084906122c9565b909155505060008381526003602052604081208054849290611b919084906122c9565b9250508190555081816009016000828254611bac91906122c9565b9091555050600083815260056020908152604080832033808552908352818420805460ff191660019081179091558785526009845282852091855292528220805491929091611bfc9084906122c9565b9091555050505050565b6000818152600360209081526040808320546007909252909120600901541115611c695760405162461bcd60e51b81526020600482015260146024820152731b9bdd08185b1b081a185d994818db185a5b595960621b60448201526064016106ae565b60005b600082815260076020526040902060080154811015611d75576000828152600760205260408120600801805483908110611ca857611ca861227f565b6000918252602080832091909101548583526002825260408084206001600160a01b0392831680865293529283902054600654935163a9059cbb60e01b81523360048201526024810182905292945092169063a9059cbb906044016020604051808303816000875af1158015611d22573d6000803e3d6000fd5b505050506040513d601f19601f82011682018060405250810190611d4691906122ac565b505060008381526002602090815260408083206001600160a01b03909416835292905290812055600101611c6c565b5060009081526007602090815260408083206009018390556003909152812055565b604051806101c0016040528060006001600160a01b031681526020016060815260200160006001600160a01b031681526020016000815260200160008152602001600081526020016000815260200160001515815260200160608152602001600081526020016000151581526020016000815260200160008152602001600081525090565b828054828255906000526020600020908101928215611e71579160200282015b82811115611e7157825182546001600160a01b0319166001600160a01b03909116178255602090920191600190910190611e3c565b50611e7d929150611e81565b5090565b5b80821115611e7d5760008155600101611e82565b600060208284031215611ea857600080fd5b5035919050565b80356001600160a01b0381168114611ec657600080fd5b919050565b600060208284031215611edd57600080fd5b611ee682611eaf565b9392505050565b6000815180845260005b81811015611f1357602081850181015186830182015201611ef7565b506000602082860101526020601f19601f83011685010191505092915050565b60008151808452602080850194506020840160005b83811015611f6d5781516001600160a01b031687529582019590820190600101611f48565b509495945050505050565b600060208083018184528085518083526040925060408601915060408160051b87010184880160005b8381101561209957888303603f19018552815180516001600160a01b031684526101c088820151818a870152611fd982870182611eed565b91505087820151611ff4898701826001600160a01b03169052565b50606082810151908601526080808301519086015260a0808301519086015260c0808301519086015260e08083015115159086015261010080830151868303828801526120418382611f33565b92505050610120808301518187015250610140808301516120658288018215159052565b5050610160828101519086015261018080830151908601526101a09182015191909401529386019390860190600101611fa1565b509098975050505050505050565b80151581146119c757600080fd5b60008060008060008060a087890312156120ce57600080fd5b863567ffffffffffffffff808211156120e657600080fd5b818901915089601f8301126120fa57600080fd5b81358181111561210957600080fd5b8a602082850101111561211b57600080fd5b60209283019850965050870135935060408701359250606087013591506080870135612146816120a7565b809150509295509295509295565b6000806040838503121561216757600080fd5b8235915061217760208401611eaf565b90509250929050565b6001600160a01b038e1681526101a0602082018190526000906121a59083018f611eed565b6001600160a01b039d909d16604083015250606081019a909a5260808a019890985260a089019690965260c088019490945291151560e087015261010086015215156101208501526101408401526101608301526101809091015292915050565b634e487b7160e01b600052601160045260246000fd5b60006001820161222e5761222e612206565b5060010190565b634e487b7160e01b600052604160045260246000fd5b600181811c9082168061225f57607f821691505b6020821081036118ff57634e487b7160e01b600052602260045260246000fd5b634e487b7160e01b600052603260045260246000fd5b808202811582820484141761199757611997612206565b6000602082840312156122be57600080fd5b8151611ee6816120a7565b8082018082111561199757611997612206565b601f821115611047576000816000526020600020601f850160051c810160208610156123055750805b601f850160051c820191505b8181101561232457828155600101612311565b505050505050565b815167ffffffffffffffff81111561234657612346612235565b61235a81612354845461224b565b846122dc565b602080601f83116001811461238f57600084156123775750858301515b600019600386901b1c1916600185901b178555612324565b600085815260208120601f198616915b828110156123be5788860151825594840194600190910190840161239f565b50858210156123dc5787850151600019600388901b60f8161c191681555b5050505050600190811b01905550565b8781526001600160a01b038716602082015260c0604082018190528101859052848660e0830137600060e08683010152600060e0601f19601f88011683010190508460608301528360808301528260a083015298975050505050505050565b6020808252600f908201526e125b9d985b1a59081c1bdbdb081251608a1b604082015260600190565b602080825260139082015272191bdb99481dda5d1a081d1a19481c9bdd5b99606a1b604082015260600190565b818103818111156119975761199761220656fea26469706673582212205c9523219e1344a41a30e150486c3638aa31deeccdba66a7ad6ca44b4d45800b64736f6c63430008190033","linkReferences":{}},"methodIdentifiers":{"balances(uint256,address)":"1f320331","claimTurn(uint256)":"83892507","contributeToPool(uint256)":"8e5815df","createPool(string,uint256,uint256,uint256,bool)":"1213d953","getAllSavingPools()":"b6f0b6f2","getOwnerSavingPools(address)":"10eae0c8","getTurnDetails(uint256)":"2cdd3f0a","hascontributed(uint256,address)":"303d49f9","joinPool(uint256)":"34e7a19f","owner()":"8da5cb5b","poolContributionbalances(uint256)":"d3d84c4c","poolCounter()":"9e3079cb","poolbalances(uint256)":"04379f09","pools(uint256)":"ac4afa38","totalNumberOfTurnsPerpool(uint256,address)":"4d2a9c7b","turn(uint256)":"b043d7d6"},"id":1}